{
    "_format": "hh-sol-artifact-1",
    "contractName": "XloopRouter",
    "sourceName": "contracts/XloopRouter.sol",
    "abi": [
        {
            "inputs": [],
            "stateMutability": "nonpayable",
            "type": "constructor"
        },
        {
            "anonymous": false,
            "inputs": [
                {
                    "indexed": false,
                    "internalType": "address",
                    "name": "previousAdmin",
                    "type": "address"
                },
                {
                    "indexed": false,
                    "internalType": "address",
                    "name": "newAdmin",
                    "type": "address"
                }
            ],
            "name": "AdminChanged",
            "type": "event"
        },
        {
            "anonymous": false,
            "inputs": [
                {
                    "indexed": false,
                    "internalType": "address",
                    "name": "admin",
                    "type": "address"
                }
            ],
            "name": "AdminSet",
            "type": "event"
        },
        {
            "anonymous": false,
            "inputs": [
                {
                    "indexed": true,
                    "internalType": "address",
                    "name": "beacon",
                    "type": "address"
                }
            ],
            "name": "BeaconUpgraded",
            "type": "event"
        },
        {
            "anonymous": false,
            "inputs": [
                {
                    "indexed": false,
                    "internalType": "uint8",
                    "name": "version",
                    "type": "uint8"
                }
            ],
            "name": "Initialized",
            "type": "event"
        },
        {
            "anonymous": false,
            "inputs": [],
            "name": "UpgradeabilityLocked",
            "type": "event"
        },
        {
            "anonymous": false,
            "inputs": [
                {
                    "indexed": true,
                    "internalType": "address",
                    "name": "implementation",
                    "type": "address"
                }
            ],
            "name": "Upgraded",
            "type": "event"
        },
        {
            "inputs": [],
            "name": "IID_XLOOPROUTER",
            "outputs": [
                {
                    "internalType": "bytes4",
                    "name": "",
                    "type": "bytes4"
                }
            ],
            "stateMutability": "view",
            "type": "function"
        },
        {
            "inputs": [],
            "name": "NAME",
            "outputs": [
                {
                    "internalType": "string",
                    "name": "",
                    "type": "string"
                }
            ],
            "stateMutability": "view",
            "type": "function"
        },
        {
            "inputs": [
                {
                    "internalType": "bytes",
                    "name": "data",
                    "type": "bytes"
                }
            ],
            "name": "adjustTrove",
            "outputs": [],
            "stateMutability": "payable",
            "type": "function"
        },
        {
            "inputs": [
                {
                    "internalType": "bytes",
                    "name": "data",
                    "type": "bytes"
                }
            ],
            "name": "adjustTroveToMintIOU",
            "outputs": [
                {
                    "internalType": "uint256",
                    "name": "iouAmount",
                    "type": "uint256"
                }
            ],
            "stateMutability": "payable",
            "type": "function"
        },
        {
            "inputs": [
                {
                    "internalType": "bytes",
                    "name": "data",
                    "type": "bytes"
                },
                {
                    "internalType": "uint256",
                    "name": "xloopAmountInMax",
                    "type": "uint256"
                },
                {
                    "internalType": "uint256",
                    "name": "xdcAmountOutMin",
                    "type": "uint256"
                },
                {
                    "internalType": "bool",
                    "name": "oneToOneMinting",
                    "type": "bool"
                }
            ],
            "name": "adjustTroveToMintXDC",
            "outputs": [
                {
                    "internalType": "uint256",
                    "name": "xdcAmount",
                    "type": "uint256"
                },
                {
                    "internalType": "uint256",
                    "name": "xloopNeeded",
                    "type": "uint256"
                }
            ],
            "stateMutability": "payable",
            "type": "function"
        },
        {
            "inputs": [],
            "name": "admin",
            "outputs": [
                {
                    "internalType": "address",
                    "name": "",
                    "type": "address"
                }
            ],
            "stateMutability": "view",
            "type": "function"
        },
        {
            "inputs": [],
            "name": "borrowerOperations",
            "outputs": [
                {
                    "internalType": "contract IBorrowerOperations",
                    "name": "",
                    "type": "address"
                }
            ],
            "stateMutability": "view",
            "type": "function"
        },
        {
            "inputs": [],
            "name": "claimCollFromSP",
            "outputs": [],
            "stateMutability": "nonpayable",
            "type": "function"
        },
        {
            "inputs": [],
            "name": "claimCollFromStaking",
            "outputs": [],
            "stateMutability": "nonpayable",
            "type": "function"
        },
        {
            "inputs": [
                {
                    "internalType": "address",
                    "name": "_registry",
                    "type": "address"
                }
            ],
            "name": "initialize",
            "outputs": [],
            "stateMutability": "nonpayable",
            "type": "function"
        },
        {
            "inputs": [],
            "name": "iouPool",
            "outputs": [
                {
                    "internalType": "contract IIOUPool",
                    "name": "",
                    "type": "address"
                }
            ],
            "stateMutability": "view",
            "type": "function"
        },
        {
            "inputs": [],
            "name": "iouToken",
            "outputs": [
                {
                    "internalType": "contract IIOUToken",
                    "name": "",
                    "type": "address"
                }
            ],
            "stateMutability": "view",
            "type": "function"
        },
        {
            "inputs": [
                {
                    "internalType": "address",
                    "name": "",
                    "type": "address"
                },
                {
                    "internalType": "address",
                    "name": "",
                    "type": "address"
                }
            ],
            "name": "lastDIA",
            "outputs": [
                {
                    "internalType": "uint256",
                    "name": "",
                    "type": "uint256"
                }
            ],
            "stateMutability": "view",
            "type": "function"
        },
        {
            "inputs": [
                {
                    "internalType": "address",
                    "name": "",
                    "type": "address"
                }
            ],
            "name": "lastRedeemed",
            "outputs": [
                {
                    "internalType": "uint256",
                    "name": "",
                    "type": "uint256"
                }
            ],
            "stateMutability": "view",
            "type": "function"
        },
        {
            "inputs": [],
            "name": "lockUpgradeability",
            "outputs": [],
            "stateMutability": "nonpayable",
            "type": "function"
        },
        {
            "inputs": [
                {
                    "internalType": "uint256",
                    "name": "amount",
                    "type": "uint256"
                },
                {
                    "internalType": "bool",
                    "name": "fromSP",
                    "type": "bool"
                }
            ],
            "name": "moveIOUBetweenTwoPools",
            "outputs": [],
            "stateMutability": "nonpayable",
            "type": "function"
        },
        {
            "inputs": [
                {
                    "internalType": "bytes",
                    "name": "data",
                    "type": "bytes"
                }
            ],
            "name": "openTroveToMintIOU",
            "outputs": [
                {
                    "internalType": "uint256",
                    "name": "iouAmount",
                    "type": "uint256"
                }
            ],
            "stateMutability": "payable",
            "type": "function"
        },
        {
            "inputs": [
                {
                    "internalType": "bytes",
                    "name": "data",
                    "type": "bytes"
                },
                {
                    "internalType": "uint256",
                    "name": "xloopAmountInMax",
                    "type": "uint256"
                },
                {
                    "internalType": "uint256",
                    "name": "xdcAmountOutMin",
                    "type": "uint256"
                },
                {
                    "internalType": "bool",
                    "name": "oneToOneMinting",
                    "type": "bool"
                }
            ],
            "name": "openTroveToMintXDC",
            "outputs": [
                {
                    "internalType": "uint256",
                    "name": "xdcAmount",
                    "type": "uint256"
                },
                {
                    "internalType": "uint256",
                    "name": "xloopNeeded",
                    "type": "uint256"
                }
            ],
            "stateMutability": "payable",
            "type": "function"
        },
        {
            "inputs": [],
            "name": "proxiableUUID",
            "outputs": [
                {
                    "internalType": "bytes32",
                    "name": "",
                    "type": "bytes32"
                }
            ],
            "stateMutability": "view",
            "type": "function"
        },
        {
            "inputs": [
                {
                    "internalType": "bytes",
                    "name": "data",
                    "type": "bytes"
                }
            ],
            "name": "redeemIOU",
            "outputs": [],
            "stateMutability": "nonpayable",
            "type": "function"
        },
        {
            "inputs": [
                {
                    "internalType": "uint256",
                    "name": "xdcAmount",
                    "type": "uint256"
                },
                {
                    "internalType": "address",
                    "name": "asset",
                    "type": "address"
                },
                {
                    "internalType": "uint256",
                    "name": "iouAmountOutMin",
                    "type": "uint256"
                },
                {
                    "internalType": "uint256",
                    "name": "xloopAmountOutMin",
                    "type": "uint256"
                },
                {
                    "internalType": "address",
                    "name": "upperHint",
                    "type": "address"
                },
                {
                    "internalType": "address",
                    "name": "lowerHint",
                    "type": "address"
                }
            ],
            "name": "redeemXDCToAdjust",
            "outputs": [
                {
                    "internalType": "uint256",
                    "name": "iouAmount",
                    "type": "uint256"
                },
                {
                    "internalType": "uint256",
                    "name": "xloopAmount",
                    "type": "uint256"
                }
            ],
            "stateMutability": "nonpayable",
            "type": "function"
        },
        {
            "inputs": [
                {
                    "internalType": "address",
                    "name": "asset",
                    "type": "address"
                },
                {
                    "internalType": "uint256",
                    "name": "xdcAmount",
                    "type": "uint256"
                },
                {
                    "internalType": "uint256",
                    "name": "iouAmountOutMin",
                    "type": "uint256"
                },
                {
                    "internalType": "uint256",
                    "name": "xloopAmountOutMin",
                    "type": "uint256"
                },
                {
                    "internalType": "bool",
                    "name": "toDrawIOUFromSP",
                    "type": "bool"
                }
            ],
            "name": "redeemXDCToClose",
            "outputs": [
                {
                    "internalType": "uint256",
                    "name": "iouAmount",
                    "type": "uint256"
                },
                {
                    "internalType": "uint256",
                    "name": "xloopAmount",
                    "type": "uint256"
                }
            ],
            "stateMutability": "nonpayable",
            "type": "function"
        },
        {
            "inputs": [
                {
                    "internalType": "uint256",
                    "name": "xdcAmount",
                    "type": "uint256"
                },
                {
                    "internalType": "uint256",
                    "name": "iouAmountOutMin",
                    "type": "uint256"
                },
                {
                    "internalType": "uint256",
                    "name": "xloopAmountOutMin",
                    "type": "uint256"
                }
            ],
            "name": "redeemXDCToDepositToIP",
            "outputs": [
                {
                    "internalType": "uint256",
                    "name": "iouAmount",
                    "type": "uint256"
                },
                {
                    "internalType": "uint256",
                    "name": "xloopAmount",
                    "type": "uint256"
                }
            ],
            "stateMutability": "nonpayable",
            "type": "function"
        },
        {
            "inputs": [
                {
                    "internalType": "uint256",
                    "name": "xdcAmount",
                    "type": "uint256"
                },
                {
                    "internalType": "uint256",
                    "name": "iouAmountOutMin",
                    "type": "uint256"
                },
                {
                    "internalType": "uint256",
                    "name": "xloopAmountOutMin",
                    "type": "uint256"
                }
            ],
            "name": "redeemXDCToDepositToSP",
            "outputs": [
                {
                    "internalType": "uint256",
                    "name": "iouAmount",
                    "type": "uint256"
                },
                {
                    "internalType": "uint256",
                    "name": "xloopAmount",
                    "type": "uint256"
                }
            ],
            "stateMutability": "nonpayable",
            "type": "function"
        },
        {
            "inputs": [],
            "name": "redemptionManager",
            "outputs": [
                {
                    "internalType": "contract IRedemptionManager",
                    "name": "",
                    "type": "address"
                }
            ],
            "stateMutability": "view",
            "type": "function"
        },
        {
            "inputs": [],
            "name": "rewardManager",
            "outputs": [
                {
                    "internalType": "contract IRewardManager",
                    "name": "",
                    "type": "address"
                }
            ],
            "stateMutability": "view",
            "type": "function"
        },
        {
            "inputs": [
                {
                    "internalType": "address",
                    "name": "addr",
                    "type": "address"
                }
            ],
            "name": "setAdmin",
            "outputs": [],
            "stateMutability": "nonpayable",
            "type": "function"
        },
        {
            "inputs": [],
            "name": "sortedTroves",
            "outputs": [
                {
                    "internalType": "contract ISortedTroves",
                    "name": "",
                    "type": "address"
                }
            ],
            "stateMutability": "view",
            "type": "function"
        },
        {
            "inputs": [],
            "name": "stabilityPool",
            "outputs": [
                {
                    "internalType": "contract IStabilityPool",
                    "name": "",
                    "type": "address"
                }
            ],
            "stateMutability": "view",
            "type": "function"
        },
        {
            "inputs": [
                {
                    "internalType": "bytes4",
                    "name": "interfaceId",
                    "type": "bytes4"
                }
            ],
            "name": "supportsInterface",
            "outputs": [
                {
                    "internalType": "bool",
                    "name": "",
                    "type": "bool"
                }
            ],
            "stateMutability": "view",
            "type": "function"
        },
        {
            "inputs": [],
            "name": "systemAdmin",
            "outputs": [
                {
                    "internalType": "address",
                    "name": "",
                    "type": "address"
                }
            ],
            "stateMutability": "view",
            "type": "function"
        },
        {
            "inputs": [],
            "name": "systemManager",
            "outputs": [
                {
                    "internalType": "contract ISystemManager",
                    "name": "",
                    "type": "address"
                }
            ],
            "stateMutability": "view",
            "type": "function"
        },
        {
            "inputs": [],
            "name": "treasury",
            "outputs": [
                {
                    "internalType": "contract IXloopTreasury",
                    "name": "",
                    "type": "address"
                }
            ],
            "stateMutability": "view",
            "type": "function"
        },
        {
            "inputs": [],
            "name": "troveManager",
            "outputs": [
                {
                    "internalType": "contract ITroveManager",
                    "name": "",
                    "type": "address"
                }
            ],
            "stateMutability": "view",
            "type": "function"
        },
        {
            "inputs": [
                {
                    "internalType": "address",
                    "name": "newImplementation",
                    "type": "address"
                }
            ],
            "name": "upgradeTo",
            "outputs": [],
            "stateMutability": "nonpayable",
            "type": "function"
        },
        {
            "inputs": [
                {
                    "internalType": "address",
                    "name": "newImplementation",
                    "type": "address"
                },
                {
                    "internalType": "bytes",
                    "name": "data",
                    "type": "bytes"
                }
            ],
            "name": "upgradeToAndCall",
            "outputs": [],
            "stateMutability": "payable",
            "type": "function"
        },
        {
            "inputs": [],
            "name": "upgrdeabilityLock",
            "outputs": [
                {
                    "internalType": "bool",
                    "name": "",
                    "type": "bool"
                }
            ],
            "stateMutability": "view",
            "type": "function"
        },
        {
            "inputs": [
                {
                    "internalType": "address",
                    "name": "_asset",
                    "type": "address"
                },
                {
                    "internalType": "bool",
                    "name": "fromStabilityPool",
                    "type": "bool"
                },
                {
                    "internalType": "bool",
                    "name": "fromStaking",
                    "type": "bool"
                },
                {
                    "internalType": "bool",
                    "name": "fromSurplus",
                    "type": "bool"
                }
            ],
            "name": "withdrawColl",
            "outputs": [
                {
                    "internalType": "uint256",
                    "name": "spAssetAmount",
                    "type": "uint256"
                },
                {
                    "internalType": "uint256",
                    "name": "surplusAssetAmount",
                    "type": "uint256"
                },
                {
                    "internalType": "uint256",
                    "name": "stakingAssetAmount",
                    "type": "uint256"
                }
            ],
            "stateMutability": "nonpayable",
            "type": "function"
        },
        {
            "inputs": [
                {
                    "internalType": "address",
                    "name": "_asset",
                    "type": "address"
                },
                {
                    "internalType": "bool",
                    "name": "fromStabilityPool",
                    "type": "bool"
                },
                {
                    "internalType": "bool",
                    "name": "fromStaking",
                    "type": "bool"
                },
                {
                    "internalType": "bool",
                    "name": "fromSurplus",
                    "type": "bool"
                },
                {
                    "internalType": "address",
                    "name": "_upperHint",
                    "type": "address"
                },
                {
                    "internalType": "address",
                    "name": "_lowerHint",
                    "type": "address"
                }
            ],
            "name": "withdrawCollToAdjust",
            "outputs": [],
            "stateMutability": "nonpayable",
            "type": "function"
        },
        {
            "inputs": [
                {
                    "internalType": "uint256",
                    "name": "iouAmount",
                    "type": "uint256"
                },
                {
                    "internalType": "uint256",
                    "name": "xloopAmountInMax",
                    "type": "uint256"
                },
                {
                    "internalType": "uint256",
                    "name": "xdcAmountOutMin",
                    "type": "uint256"
                },
                {
                    "internalType": "bool",
                    "name": "oneToOneMinting",
                    "type": "bool"
                }
            ],
            "name": "withdrawFromIPToMintXDC",
            "outputs": [
                {
                    "internalType": "uint256",
                    "name": "xdcAmount",
                    "type": "uint256"
                },
                {
                    "internalType": "uint256",
                    "name": "xloopNeeded",
                    "type": "uint256"
                }
            ],
            "stateMutability": "nonpayable",
            "type": "function"
        },
        {
            "inputs": [
                {
                    "internalType": "uint256",
                    "name": "iouAmount",
                    "type": "uint256"
                },
                {
                    "internalType": "uint256",
                    "name": "xloopAmountInMax",
                    "type": "uint256"
                },
                {
                    "internalType": "uint256",
                    "name": "xdcAmountOutMin",
                    "type": "uint256"
                },
                {
                    "internalType": "bool",
                    "name": "oneToOneMinting",
                    "type": "bool"
                }
            ],
            "name": "withdrawFromSPToMintXDC",
            "outputs": [
                {
                    "internalType": "uint256",
                    "name": "xdcAmount",
                    "type": "uint256"
                },
                {
                    "internalType": "uint256",
                    "name": "xloopNeeded",
                    "type": "uint256"
                }
            ],
            "stateMutability": "nonpayable",
            "type": "function"
        },
        {
            "inputs": [
                {
                    "internalType": "bytes",
                    "name": "data",
                    "type": "bytes"
                }
            ],
            "name": "withdrawIOUToAdjust",
            "outputs": [],
            "stateMutability": "nonpayable",
            "type": "function"
        },
        {
            "inputs": [
                {
                    "internalType": "address",
                    "name": "_asset",
                    "type": "address"
                },
                {
                    "internalType": "uint256",
                    "name": "_amount",
                    "type": "uint256"
                }
            ],
            "name": "withdrawIOUToClose",
            "outputs": [],
            "stateMutability": "nonpayable",
            "type": "function"
        },
        {
            "inputs": [
                {
                    "internalType": "uint256",
                    "name": "iouAmount",
                    "type": "uint256"
                },
                {
                    "internalType": "uint256",
                    "name": "xloopAmountOutMin",
                    "type": "uint256"
                }
            ],
            "name": "withdrawIOUToRecollateralize",
            "outputs": [],
            "stateMutability": "nonpayable",
            "type": "function"
        },
        {
            "inputs": [],
            "name": "xdcPool",
            "outputs": [
                {
                    "internalType": "contract IXDCPool",
                    "name": "",
                    "type": "address"
                }
            ],
            "stateMutability": "view",
            "type": "function"
        },
        {
            "inputs": [],
            "name": "xdcToken",
            "outputs": [
                {
                    "internalType": "contract IXDCToken",
                    "name": "",
                    "type": "address"
                }
            ],
            "stateMutability": "view",
            "type": "function"
        },
        {
            "inputs": [],
            "name": "xloopStaking",
            "outputs": [
                {
                    "internalType": "contract IXloopStaking",
                    "name": "",
                    "type": "address"
                }
            ],
            "stateMutability": "view",
            "type": "function"
        },
        {
            "inputs": [],
            "name": "xloopToken",
            "outputs": [
                {
                    "internalType": "contract IXloopToken",
                    "name": "",
                    "type": "address"
                }
            ],
            "stateMutability": "view",
            "type": "function"
        },
        {
            "inputs": [],
            "name": "yieldManager",
            "outputs": [
                {
                    "internalType": "contract IYieldManager",
                    "name": "",
                    "type": "address"
                }
            ],
            "stateMutability": "view",
            "type": "function"
        },
        {
            "stateMutability": "payable",
            "type": "receive"
        }
    ],
    "bytecode": "0x60a0604052306080523480156200001557600080fd5b506200002062000026565b620000e7565b600054610100900460ff1615620000935760405162461bcd60e51b815260206004820152602760248201527f496e697469616c697a61626c653a20636f6e747261637420697320696e697469604482015266616c697a696e6760c81b606482015260840160405180910390fd5b60005460ff90811614620000e5576000805460ff191660ff9081179091556040519081527f7f26b83ff96e1f2b6a682f133852f6798a09c465da95921460cefb38474024989060200160405180910390a15b565b60805161535b6200011f6000396000818161124301528181611283015281816113bd015281816113fd0152611475015261535b6000f3fe6080604052600436106102325760003560e01c806301ffc9a71461029357806302a55b0c146102c8578063048c661d1461030e5780630f4ef8a61461033b5780630f5c12df1461035b5780631192fbcc1461037b5780631292c6411461039d57806312cd2dd1146103d257806313ce25af146103e55780631909bb47146104055780631a50b7e0146104185780631b22d10d146104385780632361a6051461044d5780632caa87831461046d5780632df6d4351461048d5780632f636baf146104ae5780633278eb04146104ce5780633659cfe6146104ee5780633b4f822f1461050e5780633d83908a1461052e5780634695fc8b1461054e5780634f1ef2861461056e57806352d1902d1461058157806361d027b314610596578063704b6c02146105b65780637185d1dd146105d657806377553ad4146105f65780637bd944a81461061657806380b7af181461062b5780638d1f93ac1461064b5780638e34b1941461066b5780638fc115c61461068b578063a239e33d146106ab578063a3f4df7e146106cb578063ab1d18341461070f578063abae2c4c1461072f578063ae9187541461075c578063b9d6e98d1461077c578063c19faca014610791578063c4d66de8146107b1578063c5ab86b0146107d1578063cc0bcd58146107f1578063d41ab79114610825578063d633bfdf14610854578063e144e5f014610874578063e7eb364514610887578063ef41d2331461089a578063f851a440146108ad578063f99269f2146108cd57600080fd5b3661028e5760405162461bcd60e51b815260206004820152602160248201527f58523a20726563656976696e672045544873206973206e6f7420616c6c6f77656044820152601960fa1b60648201526084015b60405180910390fd5b600080fd5b34801561029f57600080fd5b506102b36102ae3660046147bd565b6108ed565b60405190151581526020015b60405180910390f35b3480156102d457600080fd5b506103006102e33660046147fc565b60db60209081526000928352604080842090915290825290205481565b6040519081526020016102bf565b34801561031a57600080fd5b5060d15461032e906001600160a01b031681565b6040516102bf9190614835565b34801561034757600080fd5b5060cf5461032e906001600160a01b031681565b34801561036757600080fd5b5060d65461032e906001600160a01b031681565b34801561038757600080fd5b5061039b610396366004614849565b610924565b005b3480156103a957600080fd5b506103bd6103b836600461486b565b610ac0565b604080519283526020830191909152016102bf565b6103006103e0366004614913565b610bad565b3480156103f157600080fd5b5060d55461032e906001600160a01b031681565b610300610413366004614913565b610cde565b34801561042457600080fd5b5060d25461032e906001600160a01b031681565b34801561044457600080fd5b5061039b610e28565b34801561045957600080fd5b5061039b610468366004614962565b610ea2565b34801561047957600080fd5b5061039b610488366004614913565b611057565b34801561049957600080fd5b5060ca546102b390600160a01b900460ff1681565b3480156104ba57600080fd5b506103bd6104c9366004614987565b6111a6565b3480156104da57600080fd5b5060ce5461032e906001600160a01b031681565b3480156104fa57600080fd5b5061039b6105093660046149b3565b611239565b34801561051a57600080fd5b506103bd6105293660046149d0565b611301565b34801561053a57600080fd5b5060d35461032e906001600160a01b031681565b34801561055a57600080fd5b5060d75461032e906001600160a01b031681565b61039b61057c366004614a27565b6113b3565b34801561058d57600080fd5b50610300611468565b3480156105a257600080fd5b5060d85461032e906001600160a01b031681565b3480156105c257600080fd5b5061039b6105d13660046149b3565b611516565b3480156105e257600080fd5b5061039b6105f1366004614aea565b61160a565b34801561060257600080fd5b5060cb5461032e906001600160a01b031681565b34801561062257600080fd5b5061039b611bda565b34801561063757600080fd5b5060d95461032e906001600160a01b031681565b34801561065757600080fd5b5061039b610666366004614913565b611c13565b34801561067757600080fd5b5060cd5461032e906001600160a01b031681565b34801561069757600080fd5b506103bd6106a6366004614987565b611d19565b3480156106b757600080fd5b5060ca5461032e906001600160a01b031681565b3480156106d757600080fd5b506107026040518060400160405280600b81526020016a2c3637b7b82937baba32b960a91b81525081565b6040516102bf9190614b9e565b34801561071b57600080fd5b5061039b61072a366004614bb1565b611d67565b34801561073b57600080fd5b5061030061074a3660046149b3565b60da6020526000908152604090205481565b34801561076857600080fd5b5060d05461032e906001600160a01b031681565b34801561078857600080fd5b5061039b611e23565b34801561079d57600080fd5b506103bd6107ac3660046149d0565b611efb565b3480156107bd57600080fd5b5061039b6107cc3660046149b3565b611f54565b3480156107dd57600080fd5b506103bd6107ec366004614bdd565b6129c5565b3480156107fd57600080fd5b5061080c635bc3a0b360e01b81565b6040516001600160e01b031990911681526020016102bf565b34801561083157600080fd5b50610845610840366004614c33565b612cae565b6040516102bf93929190614c84565b34801561086057600080fd5b5060cc5461032e906001600160a01b031681565b6103bd610882366004614c9a565b612e53565b61039b610895366004614913565b612f36565b6103bd6108a8366004614c9a565b6130b8565b3480156108b957600080fd5b5060c95461032e906001600160a01b031681565b3480156108d957600080fd5b5060d45461032e906001600160a01b031681565b60006001600160e01b03198216635bc3a0b360e01b148061091e57506301ffc9a760e01b6001600160e01b03198316145b92915050565b61092c6131c0565b60d154604051627b8a6760e11b815233916001600160a01b03169062f714ce9061095c9086908590600401614cf6565b600060405180830381600087803b15801561097657600080fd5b505af115801561098a573d6000803e3d6000fd5b505060d45460405163af2d373960e01b81526004810187905260248101869052600093508392506001600160a01b039091169063af2d37399060440160408051808303816000875af11580156109e4573d6000803e3d6000fd5b505050506040513d601f19601f82011682018060405250810190610a089190614d0d565b91509150610a34604051806040016040528060058152602001640586c6f6f760dc1b8152508483613219565b84821015610aaf576000610a488387614d47565b60d154604051636e553f6560e01b81529192506001600160a01b031690636e553f6590610a7b9084908890600401614cf6565b600060405180830381600087803b158015610a9557600080fd5b505af1158015610aa9573d6000803e3d6000fd5b50505050505b505050610abc6001603355565b5050565b600080610acb6131c0565b33610ad8818a8989613326565b604080516001600160a01b038c811660208301526000828401819052606083018190526080830186905260a083018190528a821660c084015289821660e0840152610100808401919091528351808403909101815261012083019384905260cb5463140dbdc960e21b909452949750929550911690635036f72490610b64908490869061012401614d5a565b600060405180830381600087803b158015610b7e57600080fd5b505af1158015610b92573d6000803e3d6000fd5b505050505050610ba26001603355565b965096945050505050565b6000610bb76131c0565b6000339050610bfd84848080601f016020809104026020016040519081016040528093929190818152602001838380828437600092019190915250859250613443915050565b91506000610c4085858080601f01602080910402602001604051908101604052809392919081815260200183838082843760009201829052509250613618915050565b5090508083148015610c525750600083115b610c6e5760405162461bcd60e51b815260040161028590614d84565b60d154604051636e553f6560e01b81526001600160a01b0390911690636e553f6590610ca09086908690600401614cf6565b600060405180830381600087803b158015610cba57600080fd5b505af1158015610cce573d6000803e3d6000fd5b50505050505061091e6001603355565b6000610ce86131c0565b6000339050600080610d3286868080601f01602080910402602001604051908101604052809392919081815260200183838082843760009201919091525060019250613618915050565b9150915080610d535760405162461bcd60e51b815260040161028590614dae565b610d9686868080601f0160208091040260200160405190810160405280939291908181526020018383808284376000920191909152508792508591506136a19050565b9350838214610db75760405162461bcd60e51b815260040161028590614d84565b60d154604051636e553f6560e01b81526001600160a01b0390911690636e553f6590610de99087908790600401614cf6565b600060405180830381600087803b158015610e0357600080fd5b505af1158015610e17573d6000803e3d6000fd5b5050505050505061091e6001603355565b610e306131c0565b60d65460405163776de3bb60e11b815233916001600160a01b03169063eedbc77690610e63908490600090600401614df2565b600060405180830381600087803b158015610e7d57600080fd5b505af1158015610e91573d6000803e3d6000fd5b5050505050610ea06001603355565b565b610eaa6131c0565b338115610f8557610eba83613925565b60d154604051627b8a6760e11b81526001600160a01b039091169062f714ce90610eea9086908590600401614cf6565b600060405180830381600087803b158015610f0457600080fd5b505af1158015610f18573d6000803e3d6000fd5b505060cc54604051636e553f6560e01b81526001600160a01b039091169250636e553f659150610f4e9086908590600401614cf6565b600060405180830381600087803b158015610f6857600080fd5b505af1158015610f7c573d6000803e3d6000fd5b5050505061104c565b60cc54604051627b8a6760e11b81526001600160a01b039091169062f714ce90610fb59086908590600401614cf6565b600060405180830381600087803b158015610fcf57600080fd5b505af1158015610fe3573d6000803e3d6000fd5b505060d154604051636e553f6560e01b81526001600160a01b039091169250636e553f6591506110199086908590600401614cf6565b600060405180830381600087803b15801561103357600080fd5b505af1158015611047573d6000803e3d6000fd5b505050505b50610abc6001603355565b61105f6131c0565b33600081815260da6020526040902054431161108d5760405162461bcd60e51b815260040161028590614e0b565b60006110d184848080601f01602080910402602001604051908101604052809392919081815260200183838082843760009201919091525060029250613618915050565b5060d154604051627b8a6760e11b81529192506001600160a01b03169062f714ce906111039084908690600401614cf6565b600060405180830381600087803b15801561111d57600080fd5b505af1158015611131573d6000803e3d6000fd5b505060ce54604051621500bd60e41b81526001600160a01b0390911692506301500bd0915061116890879087908790600401614e56565b600060405180830381600087803b15801561118257600080fd5b505af1158015611196573d6000803e3d6000fd5b505050505050610abc6001603355565b6000806111b16131c0565b336111be81878787613326565b60d154604051636e553f6560e01b81529295509093506001600160a01b031690636e553f65906111f49086908590600401614cf6565b600060405180830381600087803b15801561120e57600080fd5b505af1158015611222573d6000803e3d6000fd5b50505050506112316001603355565b935093915050565b6001600160a01b037f00000000000000000000000000000000000000000000000000000000000000001630036112815760405162461bcd60e51b815260040161028590614e97565b7f00000000000000000000000000000000000000000000000000000000000000006001600160a01b03166112b3613a5f565b6001600160a01b0316146112d95760405162461bcd60e51b815260040161028590614ed1565b6112e281613a7b565b604080516000808252602082019092526112fe91839190613b28565b50565b60008061130c6131c0565b338661132a5760405162461bcd60e51b815260040161028590614f0b565b60cc54604051627b8a6760e11b81526001600160a01b039091169062f714ce9061135a908a908590600401614cf6565b600060405180830381600087803b15801561137457600080fd5b505af1158015611388573d6000803e3d6000fd5b505050506113998188888888613c93565b90935091506113aa90506001603355565b94509492505050565b6001600160a01b037f00000000000000000000000000000000000000000000000000000000000000001630036113fb5760405162461bcd60e51b815260040161028590614e97565b7f00000000000000000000000000000000000000000000000000000000000000006001600160a01b031661142d613a5f565b6001600160a01b0316146114535760405162461bcd60e51b815260040161028590614ed1565b61145c82613a7b565b610abc82826001613b28565b6000306001600160a01b037f000000000000000000000000000000000000000000000000000000000000000016146115035760405162461bcd60e51b815260206004820152603860248201527f555550535570677261646561626c653a206d757374206e6f742062652063616c6044820152771b1959081d1a1c9bdd59da0819195b1959d85d1958d85b1b60421b6064820152608401610285565b506000805160206152df83398151915290565b60ca546001600160a01b031633146115685760405162461bcd60e51b81526020600482015260156024820152742c291d1037b7363c9039bcb9ba32b69030b236b4b760591b6044820152606401610285565b6001600160a01b0381166115b45760405162461bcd60e51b815260206004820152601360248201527258523a20696e76616c6964206164647265737360681b6044820152606401610285565b60c980546001600160a01b0319166001600160a01b0383161790556040517f8fe72c3e0020beb3234e76ae6676fa576fbfcae600af1c4fea44784cf0db329c906115ff908390614835565b60405180910390a150565b6116126131c0565b3361161d8782613db4565b61162687613e8c565b60cf5460405163df4fb9ef60e01b81526001600160a01b039091169063df4fb9ef90611658908a908590600401614f4c565b600060405180830381600087803b15801561167257600080fd5b505af1158015611686573d6000803e3d6000fd5b5050505060008060008089156117805760d154604051627b8a6760e11b81526001600160a01b039091169062f714ce906116c7906000908990600401614cf6565b600060405180830381600087803b1580156116e157600080fd5b505af11580156116f5573d6000803e3d6000fd5b505060d8546040516310b9e90b60e31b81526001600160a01b0390911692506385cf4858915061172e908e908990600390600401614f88565b6020604051808303816000875af115801561174d573d6000803e3d6000fd5b505050506040513d601f19601f820116820180604052508101906117719190614fad565b925061177d8385614fc6565b93505b871561180d5760d8546040516310b9e90b60e31b81526001600160a01b03909116906385cf4858906117bb908e908990600290600401614f88565b6020604051808303816000875af11580156117da573d6000803e3d6000fd5b505050506040513d601f19601f820116820180604052508101906117fe9190614fad565b915061180a8285614fc6565b93505b88156118fe5760d65460405163776de3bb60e11b81526001600160a01b039091169063eedbc77690611846908890600090600401614df2565b600060405180830381600087803b15801561186057600080fd5b505af1158015611874573d6000803e3d6000fd5b505060d8546040516310b9e90b60e31b81526001600160a01b0390911692506385cf485891506118ac908e9089906004908101614f88565b6020604051808303816000875af11580156118cb573d6000803e3d6000fd5b505050506040513d601f19601f820116820180604052508101906118ef9190614fad565b90506118fb8185614fc6565b93505b6000841161195e5760405162461bcd60e51b815260206004820152602760248201527f58523a206e6f20636f6c6c61746572616c20746f20626520636c61696d656420604482015266066726f6d2053560cc1b6064820152608401610285565b60d3546040516302b1ecfd60e01b81526001600160a01b038d811660048301528781166024830152604482018790526000606483015260016084830152909116906302b1ecfd9060a4016020604051808303816000875af11580156119c7573d6000803e3d6000fd5b505050506040513d601f19601f820116820180604052508101906119eb9190614fad565b5060d35460405163dbe9f91960e01b81526001600160a01b039091169063dbe9f91990611a1e908e908990600401614f4c565b6020604051808303816000875af1158015611a3d573d6000803e3d6000fd5b505050506040513d601f19601f82011682018060405250810190611a619190614fad565b5060d3546040516322cafff560e21b81526000916001600160a01b031690638b2bffd490611a95908f908a90600401614f4c565b602060405180830381865afa158015611ab2573d6000803e3d6000fd5b505050506040513d601f19601f82011682018060405250810190611ad69190614fad565b60d05460405163bc9b5bd560e01b81526001600160a01b038f811660048301528981166024830152604482018490528b811660648301528a8116608483015292935091169063bc9b5bd59060a401600060405180830381600087803b158015611b3e57600080fd5b505af1158015611b52573d6000803e3d6000fd5b505060d85460405163a714304560e01b81526001600160a01b03909116925063a71430459150611b90908f9089906000908190600190600401614fd9565b600060405180830381600087803b158015611baa57600080fd5b505af1158015611bbe573d6000803e3d6000fd5b50505050505050505050611bd26001603355565b505050505050565b611be26131c0565b60d154604051627b8a6760e11b815233916001600160a01b03169062f714ce90610e63906000908590600401614cf6565b611c1b6131c0565b6000339050600080611c6285858080601f016020809104026020016040519081016040528093929190818152602001838380828437600092019190915250613ef192505050565b60d154604051627b8a6760e11b81529294509092506001600160a01b03169062f714ce90611c969085908790600401614cf6565b600060405180830381600087803b158015611cb057600080fd5b505af1158015611cc4573d6000803e3d6000fd5b50505050611d0b85858080601f0160208091040260200160405190810160405280939291908181526020018383808284376000920191909152508792508591506136a19050565b50505050610abc6001603355565b600080611d246131c0565b33611d3181878787613326565b60cc54604051636e553f6560e01b81529295509093506001600160a01b031690636e553f65906111f49086908590600401614cf6565b611d6f6131c0565b60d154604051627b8a6760e11b815233916001600160a01b03169062f714ce90611d9f9085908590600401614cf6565b600060405180830381600087803b158015611db957600080fd5b505af1158015611dcd573d6000803e3d6000fd5b505050506000611ddd8483613ff1565b90508015611e175760d154604051636e553f6560e01b81526001600160a01b0390911690636e553f65906111689084908690600401614cf6565b5050610abc6001603355565b60c9546001600160a01b03163314611e6e5760405162461bcd60e51b815260206004820152600e60248201526d2c291d1037b7363c9030b236b4b760911b6044820152606401610285565b60ca54600160a01b900460ff1615611ebd5760405162461bcd60e51b815260206004820152601260248201527116148e88185b1c9958591e481b1bd8dad95960721b6044820152606401610285565b60ca805460ff60a01b1916600160a01b1790556040517ffa9a9c63dc3913fea0cf7e98de9c1aa5817e7b78eb51183b4f1794c35165013090600090a1565b600080611f066131c0565b3386611f245760405162461bcd60e51b815260040161028590614f0b565b60d154604051627b8a6760e11b81526001600160a01b039091169062f714ce9061135a908a908590600401614cf6565b600054610100900460ff1615808015611f745750600054600160ff909116105b80611f955750611f83306140ce565b158015611f95575060005460ff166001145b611ff85760405162461bcd60e51b815260206004820152602e60248201527f496e697469616c697a61626c653a20636f6e747261637420697320616c72656160448201526d191e481a5b9a5d1a585b1a5e995960921b6064820152608401610285565b6000805460ff19166001179055801561201b576000805461ff0019166101001790555b6001600160a01b0382166120685760405162461bcd60e51b815260206004820152601460248201527358523a20696e76616c696420726567697374727960601b6044820152606401610285565b816120716140dd565b61207961410c565b806001600160a01b031663f851a4406040518163ffffffff1660e01b8152600401602060405180830381865afa1580156120b7573d6000803e3d6000fd5b505050506040513d601f19601f820116820180604052508101906120db9190615015565b60c960006101000a8154816001600160a01b0302191690836001600160a01b03160217905550806001600160a01b03166377553ad46040518163ffffffff1660e01b8152600401602060405180830381865afa15801561213f573d6000803e3d6000fd5b505050506040513d601f19601f820116820180604052508101906121639190615015565b60cb60006101000a8154816001600160a01b0302191690836001600160a01b03160217905550806001600160a01b031663d633bfdf6040518163ffffffff1660e01b8152600401602060405180830381865afa1580156121c7573d6000803e3d6000fd5b505050506040513d601f19601f820116820180604052508101906121eb9190615015565b60cc60006101000a8154816001600160a01b0302191690836001600160a01b03160217905550806001600160a01b0316638e34b1946040518163ffffffff1660e01b8152600401602060405180830381865afa15801561224f573d6000803e3d6000fd5b505050506040513d601f19601f820116820180604052508101906122739190615015565b60cd60006101000a8154816001600160a01b0302191690836001600160a01b03160217905550806001600160a01b0316633278eb046040518163ffffffff1660e01b8152600401602060405180830381865afa1580156122d7573d6000803e3d6000fd5b505050506040513d601f19601f820116820180604052508101906122fb9190615015565b60ce60006101000a8154816001600160a01b0302191690836001600160a01b03160217905550806001600160a01b0316630f4ef8a66040518163ffffffff1660e01b8152600401602060405180830381865afa15801561235f573d6000803e3d6000fd5b505050506040513d601f19601f820116820180604052508101906123839190615015565b60cf60006101000a8154816001600160a01b0302191690836001600160a01b03160217905550806001600160a01b031663ae9187546040518163ffffffff1660e01b8152600401602060405180830381865afa1580156123e7573d6000803e3d6000fd5b505050506040513d601f19601f8201168201806040525081019061240b9190615015565b60d060006101000a8154816001600160a01b0302191690836001600160a01b03160217905550806001600160a01b031663048c661d6040518163ffffffff1660e01b8152600401602060405180830381865afa15801561246f573d6000803e3d6000fd5b505050506040513d601f19601f820116820180604052508101906124939190615015565b60d160006101000a8154816001600160a01b0302191690836001600160a01b03160217905550806001600160a01b031663a239e33d6040518163ffffffff1660e01b8152600401602060405180830381865afa1580156124f7573d6000803e3d6000fd5b505050506040513d601f19601f8201168201806040525081019061251b9190615015565b60ca60006101000a8154816001600160a01b0302191690836001600160a01b03160217905550806001600160a01b0316631a50b7e06040518163ffffffff1660e01b8152600401602060405180830381865afa15801561257f573d6000803e3d6000fd5b505050506040513d601f19601f820116820180604052508101906125a39190615015565b60d260006101000a8154816001600160a01b0302191690836001600160a01b03160217905550806001600160a01b031663740b17fc6040518163ffffffff1660e01b8152600401602060405180830381865afa158015612607573d6000803e3d6000fd5b505050506040513d601f19601f8201168201806040525081019061262b9190615015565b60d860006101000a8154816001600160a01b0302191690836001600160a01b03160217905550806001600160a01b0316633d83908a6040518163ffffffff1660e01b8152600401602060405180830381865afa15801561268f573d6000803e3d6000fd5b505050506040513d601f19601f820116820180604052508101906126b39190615015565b60d360006101000a8154816001600160a01b0302191690836001600160a01b03160217905550806001600160a01b031663f99269f26040518163ffffffff1660e01b8152600401602060405180830381865afa158015612717573d6000803e3d6000fd5b505050506040513d601f19601f8201168201806040525081019061273b9190615015565b60d460006101000a8154816001600160a01b0302191690836001600160a01b03160217905550806001600160a01b03166313ce25af6040518163ffffffff1660e01b8152600401602060405180830381865afa15801561279f573d6000803e3d6000fd5b505050506040513d601f19601f820116820180604052508101906127c39190615015565b60d560006101000a8154816001600160a01b0302191690836001600160a01b03160217905550806001600160a01b0316630f5c12df6040518163ffffffff1660e01b8152600401602060405180830381865afa158015612827573d6000803e3d6000fd5b505050506040513d601f19601f8201168201806040525081019061284b9190615015565b60d660006101000a8154816001600160a01b0302191690836001600160a01b03160217905550806001600160a01b0316634695fc8b6040518163ffffffff1660e01b8152600401602060405180830381865afa1580156128af573d6000803e3d6000fd5b505050506040513d601f19601f820116820180604052508101906128d39190615015565b60d760006101000a8154816001600160a01b0302191690836001600160a01b03160217905550806001600160a01b03166380b7af186040518163ffffffff1660e01b8152600401602060405180830381865afa158015612937573d6000803e3d6000fd5b505050506040513d601f19601f8201168201806040525081019061295b9190615015565b60d980546001600160a01b0319166001600160a01b0392909216919091179055508015610abc576000805461ff0019169055604051600181527f7f26b83ff96e1f2b6a682f133852f6798a09c465da95921460cefb38474024989060200160405180910390a15050565b6000806129d06131c0565b336129dd81888888613326565b60d354604051631e7c58c160e31b81529295509093506000916001600160a01b039091169063f3e2c60890612a18908c908690600401614f4c565b602060405180830381865afa158015612a35573d6000803e3d6000fd5b505050506040513d601f19601f82011682018060405250810190612a599190614fad565b90506000612a668a614133565b612a709083614d47565b90506000858211612a82576000612a8c565b612a8c8683614d47565b90508015612b585786612af15760405162461bcd60e51b815260206004820152602760248201527f58523a20696e73756666696369656e742058444320746f20636c6f7365207468604482015266652074726f766560c81b6064820152608401610285565b60d154604051627b8a6760e11b81526001600160a01b039091169062f714ce90612b219084908890600401614cf6565b600060405180830381600087803b158015612b3b57600080fd5b505af1158015612b4f573d6000803e3d6000fd5b50505050612bbe565b80600003612bbe578615612bbe5760405162461bcd60e51b815260206004820152602760248201527f58523a2073756666696369656e74205844432c206e6f206e65656420746f20776044820152666974686472617760c81b6064820152608401610285565b60cb546040516317d5218560e21b81526001600160a01b0390911690635f54861490612bf0908e908890600401614f4c565b600060405180830381600087803b158015612c0a57600080fd5b505af1158015612c1e573d6000803e3d6000fd5b5050505081861115612c965760d1546001600160a01b0316636e553f65612c458489614d47565b866040518363ffffffff1660e01b8152600401612c63929190614cf6565b600060405180830381600087803b158015612c7d57600080fd5b505af1158015612c91573d6000803e3d6000fd5b505050505b50505050612ca46001603355565b9550959350505050565b6000806000612cbb6131c0565b338615612d3d5760d85460405163ec7e420360e01b81526001600160a01b039091169063ec7e420390612cf7908b908590600390600401614f88565b6020604051808303816000875af1158015612d16573d6000803e3d6000fd5b505050506040513d601f19601f82011682018060405250810190612d3a9190614fad565b93505b8415612dbe5760d85460405163ec7e420360e01b81526001600160a01b039091169063ec7e420390612d78908b908590600290600401614f88565b6020604051808303816000875af1158015612d97573d6000803e3d6000fd5b505050506040513d601f19601f82011682018060405250810190612dbb9190614fad565b92505b8515612e3e5760d85460405163ec7e420360e01b81526001600160a01b039091169063ec7e420390612df8908b9085906004908101614f88565b6020604051808303816000875af1158015612e17573d6000803e3d6000fd5b505050506040513d601f19601f82011682018060405250810190612e3b9190614fad565b91505b50612e496001603355565b9450945094915050565b600080612e5e6131c0565b60003390506000612ea689898080601f016020809104026020016040519081016040528093929190818152602001838380828437600092019190915250869250613443915050565b90506000612ee98a8a8080601f01602080910402602001604051908101604052809392919081815260200183838082843760009201829052509250613618915050565b5090508082148015612efb5750600082115b612f175760405162461bcd60e51b815260040161028590614d84565b612f2483838a8a8a613c93565b9095509350612ca4925061331f915050565b612f3e6131c0565b6000339050600080612f8885858080601f01602080910402602001604051908101604052809392919081815260200183838082843760009201919091525060019250613618915050565b915091508015612fe65760405162461bcd60e51b815260206004820152602360248201527f58523a20746f20696e6372656173652064656274206973206e6f7420616c6c6f6044820152621dd95960ea1b6064820152608401610285565b811561302e5760405162461bcd60e51b815260206004820152601760248201527616148e881a5b9d985b1a59081919589d08185b5bdd5b9d604a1b6044820152606401610285565b600061307386868080601f0160208091040260200160405190810160405280939291908181526020018383808284376000920191909152508892508691506136a19050565b90508015611d0b5760405162461bcd60e51b815260206004820152601260248201527116148e881a5b9d985b1a5908185b5bdd5b9d60721b6044820152606401610285565b6000806130c36131c0565b600033905060008061310d8a8a8080601f01602080910402602001604051908101604052809392919081815260200183838082843760009201919091525060019250613618915050565b915091508061312e5760405162461bcd60e51b815260040161028590614dae565b60006131738b8b8080601f0160208091040260200160405190810160405280939291908181526020018383808284376000920191909152508892508691506136a19050565b905080831480156131845750600081115b6131a05760405162461bcd60e51b815260040161028590614d84565b6131ad84828b8b8b613c93565b9096509450612ca4935061331f92505050565b6002603354036132125760405162461bcd60e51b815260206004820152601f60248201527f5265656e7472616e637947756172643a207265656e7472616e742063616c6c006044820152606401610285565b6002603355565b61323e836040518060400160405280600381526020016258444360e81b8152506141a5565b1561325f5760d55461325a906001600160a01b031683836141fe565b505050565b61328683604051806040016040528060058152602001640586c6f6f760dc1b8152506141a5565b156132a25760d75461325a906001600160a01b031683836141fe565b6132c78360405180604001604052806003815260200162494f5560e81b8152506141a5565b156132e35760cd5461325a906001600160a01b031683836141fe565b60405162461bcd60e51b815260206004820152601160248201527016148e881b9bdd081cdd5c1c1bdc9d1959607a1b6044820152606401610285565b6001603355565b6001600160a01b038416600090815260da60205260408120548190431161335f5760405162461bcd60e51b815260040161028590614e0b565b6001600160a01b038616600090815260da60209081526040918290204390558151808301909252600382526258444360e81b908201526133a19087308861432a565b60d45460405163da58204160e01b81526001600160a01b039091169063da582041906133d590889088908890600401614c84565b60408051808303816000875af11580156133f3573d6000803e3d6000fd5b505050506040513d601f19601f820116820180604052508101906134179190614d0d565b6040805180820190915260058152640586c6f6f760dc1b602082015291935091506113aa908783613219565b60cd546040516370a0823160e01b815260009182916001600160a01b03909116906370a0823190613478903090600401614835565b602060405180830381865afa158015613495573d6000803e3d6000fd5b505050506040513d601f19601f820116820180604052508101906134b99190614fad565b9050341561352c5760cb546040516312f330ad60e01b81526001600160a01b03909116906312f330ad9034906134f59088908890600401614d5a565b6000604051808303818588803b15801561350e57600080fd5b505af1158015613522573d6000803e3d6000fd5b5050505050613591565b60cb546040516312f330ad60e01b81526001600160a01b03909116906312f330ad9061355e9087908790600401614d5a565b600060405180830381600087803b15801561357857600080fd5b505af115801561358c573d6000803e3d6000fd5b505050505b60cd546040516370a0823160e01b81526000916001600160a01b0316906370a08231906135c2903090600401614835565b602060405180830381865afa1580156135df573d6000803e3d6000fd5b505050506040513d601f19601f820116820180604052508101906136039190614fad565b905061360f8282614d47565b95945050505050565b6000808260000361364557838060200190518101906136379190615032565b5091955061369a9350505050565b826001036136735783806020019051810190613661919061508e565b93985092965061369a95505050505050565b8260020361369a578380602001905181019061368f9190615117565b509497505050505050505b9250929050565b60cd546040516370a0823160e01b815260009182916001600160a01b03909116906370a08231906136d6903090600401614835565b602060405180830381865afa1580156136f3573d6000803e3d6000fd5b505050506040513d601f19601f820116820180604052508101906137179190614fad565b9050341561378a5760cb5460405163140dbdc960e21b81526001600160a01b0390911690635036f7249034906137539089908990600401614d5a565b6000604051808303818588803b15801561376c57600080fd5b505af1158015613780573d6000803e3d6000fd5b50505050506137ef565b60cb5460405163140dbdc960e21b81526001600160a01b0390911690635036f724906137bc9088908890600401614d5a565b600060405180830381600087803b1580156137d657600080fd5b505af11580156137ea573d6000803e3d6000fd5b505050505b60cd546040516370a0823160e01b81526000916001600160a01b0316906370a0823190613820903090600401614835565b602060405180830381865afa15801561383d573d6000803e3d6000fd5b505050506040513d601f19601f820116820180604052508101906138619190614fad565b905083156138c2578181116138b15760405162461bcd60e51b815260206004820152601660248201527558523a2064656274206d75737420696e63726561736560501b6044820152606401610285565b6138bb8282614d47565b925061391c565b8181111561390f5760405162461bcd60e51b815260206004820152601a60248201527958523a2064656274206d757374206e6f7420696e63726561736560301b6044820152606401610285565b6139198183614d47565b92505b50509392505050565b60d2546040805163799c91c160e01b815290516000926001600160a01b03169163799c91c19160048083019260209291908290030181865afa15801561396f573d6000803e3d6000fd5b505050506040513d601f19601f820116820180604052508101906139939190614fad565b60cd5460cc546040516370a0823160e01b81529293506000926001600160a01b03928316926370a08231926139cd92911690600401614835565b602060405180830381865afa1580156139ea573d6000803e3d6000fd5b505050506040513d601f19601f82011682018060405250810190613a0e9190614fad565b905081613a1b8483614fc6565b111561325a5760405162461bcd60e51b815260206004820152601360248201527216148e881253d54818d85c081c995858da1959606a1b6044820152606401610285565b6000805160206152df833981519152546001600160a01b031690565b60ca54600160a01b900460ff1615613ad15760405162461bcd60e51b815260206004820152601960248201527816148e881d5c19dc98591958589a5b1a5d1e481b1bd8dad959603a1b6044820152606401610285565b60c9546001600160a01b031633146112fe5760405162461bcd60e51b815260206004820152601a60248201527958523a206f6e6c792061646d696e2063616e207570677261646560301b6044820152606401610285565b7f4910fdfa16fed3260ed0e7147f7cc6da11a60208b5b9406d12a635614ffd91435460ff1615613b5b5761325a836143fd565b826001600160a01b03166352d1902d6040518163ffffffff1660e01b8152600401602060405180830381865afa925050508015613bb5575060408051601f3d908101601f19168201909252613bb291810190614fad565b60015b613c185760405162461bcd60e51b815260206004820152602e60248201527f45524331393637557067726164653a206e657720696d706c656d656e7461746960448201526d6f6e206973206e6f74205555505360901b6064820152608401610285565b6000805160206152df8339815191528114613c875760405162461bcd60e51b815260206004820152602960248201527f45524331393637557067726164653a20756e737570706f727465642070726f786044820152681a58589b195555525160ba1b6064820152608401610285565b5061325a838383614497565b6000808415613cc557613cc5604051806040016040528060058152602001640586c6f6f760dc1b81525088308861432a565b60d45460405163360a104160e01b815260048101889052602481018790526044810186905284151560648201526001600160a01b039091169063360a10419060840160408051808303816000875af1158015613d25573d6000803e3d6000fd5b505050506040513d601f19601f82011682018060405250810190613d499190614d0d565b909250905084811015613d8e576000613d628287614d47565b9050613d8c604051806040016040528060058152602001640586c6f6f760dc1b8152508983613219565b505b612ca46040518060400160405280600381526020016258444360e81b8152508884613219565b60d35460405163614d120960e01b81526000916001600160a01b03169063614d120990613de79086908690600401614f4c565b602060405180830381865afa158015613e04573d6000803e3d6000fd5b505050506040513d601f19601f82011682018060405250810190613e289190614fad565b90508060011461325a5760405162461bcd60e51b815260206004820152602960248201527f58523a206e6f206163746976652074726f766520666f72202861737365742c20604482015268626f72726f7765722960b81b6064820152608401610285565b60d95460405163072e008f60e11b81526001600160a01b0390911690630e5c011e90613ebc908490600401614835565b600060405180830381600087803b158015613ed657600080fd5b505af1158015613eea573d6000803e3d6000fd5b5050505050565b600080613eff836001613618565b90925090508015613f5e5760405162461bcd60e51b8152602060048201526024808201527f58523a206f6e6c7920746f206465637265617365206465627420697320616c6c6044820152631bddd95960e21b6064820152608401610285565b60008211613f7e5760405162461bcd60e51b815260040161028590614f0b565b600080613f8c8560016144bc565b91509150816000148015613f9e575080155b613fea5760405162461bcd60e51b815260206004820152601e60248201527f58523a206e6f20636f6c6c206368616e676520697320616c6c6f7765642100006044820152606401610285565b5050915091565b60cb546040516317d5218560e21b81526000916001600160a01b031690635f548614906140249086908690600401614f4c565b600060405180830381600087803b15801561403e57600080fd5b505af1158015614052573d6000803e3d6000fd5b505060cd546040516370a0823160e01b81526001600160a01b0390911692506370a082319150614086903090600401614835565b602060405180830381865afa1580156140a3573d6000803e3d6000fd5b505050506040513d601f19601f820116820180604052508101906140c79190614fad565b9392505050565b6001600160a01b03163b151590565b600054610100900460ff166141045760405162461bcd60e51b81526004016102859061519d565b610ea06144ee565b600054610100900460ff16610ea05760405162461bcd60e51b81526004016102859061519d565b60d2546040516367b381a960e01b81526000916001600160a01b0316906367b381a990614164908590600401614835565b602060405180830381865afa158015614181573d6000803e3d6000fd5b505050506040513d601f19601f8201168201806040525081019061091e9190614fad565b6000816040516020016141b891906151e8565b60405160208183030381529060405280519060200120836040516020016141df91906151e8565b6040516020818303038152906040528051906020012014905092915050565b600080846001600160a01b031663a9059cbb8585604051602401614223929190614df2565b6040516020818303038152906040529060e01b6020820180516001600160e01b03838183161783525050505060405161425c91906151e8565b6000604051808303816000865af19150503d8060008114614299576040519150601f19603f3d011682016040523d82523d6000602084013e61429e565b606091505b50915091508180156142c85750805115806142c85750808060200190518101906142c89190615204565b613eea5760405162461bcd60e51b815260206004820152602d60248201527f5472616e7366657248656c7065723a3a736166655472616e736665723a20747260448201526c185b9cd9995c8819985a5b1959609a1b6064820152608401610285565b61434f846040518060400160405280600381526020016258444360e81b8152506141a5565b156143715760d55461436c906001600160a01b0316848484614515565b6143f7565b61439884604051806040016040528060058152602001640586c6f6f760dc1b8152506141a5565b156143b55760d75461436c906001600160a01b0316848484614515565b6143da8460405180604001604052806003815260200162494f5560e81b8152506141a5565b156132e35760cd5461436c906001600160a01b0316848484614515565b50505050565b614406816140ce565b6144685760405162461bcd60e51b815260206004820152602d60248201527f455243313936373a206e657720696d706c656d656e746174696f6e206973206e60448201526c1bdd08184818dbdb9d1c9858dd609a1b6064820152608401610285565b6000805160206152df83398151915280546001600160a01b0319166001600160a01b0392909216919091179055565b6144a08361464b565b6000825111806144ad5750805b1561325a576143f7838361468b565b6000808260010361369a57838060200190518101906144db9190615221565b50959b949a509398505050505050505050565b600054610100900460ff1661331f5760405162461bcd60e51b81526004016102859061519d565b604080516001600160a01b0385811660248301528481166044830152606480830185905283518084039091018152608490920183526020820180516001600160e01b03166323b872dd60e01b179052915160009283929088169161457991906151e8565b6000604051808303816000865af19150503d80600081146145b6576040519150601f19603f3d011682016040523d82523d6000602084013e6145bb565b606091505b50915091508180156145e55750805115806145e55750808060200190518101906145e59190615204565b611bd25760405162461bcd60e51b815260206004820152603160248201527f5472616e7366657248656c7065723a3a7472616e7366657246726f6d3a207472604482015270185b9cd9995c919c9bdb4819985a5b1959607a1b6064820152608401610285565b614654816143fd565b6040516001600160a01b038216907fbc7cd75a20ee27fd9adebab32041f755214dbc6bffa90cc0225b39da2e5c2d3b90600090a250565b60606140c783836040518060600160405280602781526020016152ff602791396060600080856001600160a01b0316856040516146c891906151e8565b600060405180830381855af49150503d8060008114614703576040519150601f19603f3d011682016040523d82523d6000602084013e614708565b606091505b5091509150613919868383876060831561478157825160000361477a5761472e856140ce565b61477a5760405162461bcd60e51b815260206004820152601d60248201527f416464726573733a2063616c6c20746f206e6f6e2d636f6e74726163740000006044820152606401610285565b508161478b565b61478b8383614793565b949350505050565b8151156147a35781518083602001fd5b8060405162461bcd60e51b81526004016102859190614b9e565b6000602082840312156147cf57600080fd5b81356001600160e01b0319811681146140c757600080fd5b6001600160a01b03811681146112fe57600080fd5b6000806040838503121561480f57600080fd5b823561481a816147e7565b9150602083013561482a816147e7565b809150509250929050565b6001600160a01b0391909116815260200190565b6000806040838503121561485c57600080fd5b50508035926020909101359150565b60008060008060008060c0878903121561488457600080fd5b863595506020870135614896816147e7565b9450604087013593506060870135925060808701356148b4816147e7565b915060a08701356148c4816147e7565b809150509295509295509295565b60008083601f8401126148e457600080fd5b5081356001600160401b038111156148fb57600080fd5b60208301915083602082850101111561369a57600080fd5b6000806020838503121561492657600080fd5b82356001600160401b0381111561493c57600080fd5b614948858286016148d2565b90969095509350505050565b80151581146112fe57600080fd5b6000806040838503121561497557600080fd5b82359150602083013561482a81614954565b60008060006060848603121561499c57600080fd5b505081359360208301359350604090920135919050565b6000602082840312156149c557600080fd5b81356140c7816147e7565b600080600080608085870312156149e657600080fd5b8435935060208501359250604085013591506060850135614a0681614954565b939692955090935050565b634e487b7160e01b600052604160045260246000fd5b60008060408385031215614a3a57600080fd5b8235614a45816147e7565b915060208301356001600160401b0380821115614a6157600080fd5b818501915085601f830112614a7557600080fd5b813581811115614a8757614a87614a11565b604051601f8201601f19908116603f01168101908382118183101715614aaf57614aaf614a11565b81604052828152886020848701011115614ac857600080fd5b8260208601602083013760006020848301015280955050505050509250929050565b60008060008060008060c08789031215614b0357600080fd5b8635614b0e816147e7565b95506020870135614b1e81614954565b94506040870135614b2e81614954565b93506060870135614b3e81614954565b925060808701356148b4816147e7565b60005b83811015614b69578181015183820152602001614b51565b50506000910152565b60008151808452614b8a816020860160208601614b4e565b601f01601f19169290920160200192915050565b6020815260006140c76020830184614b72565b60008060408385031215614bc457600080fd5b8235614bcf816147e7565b946020939093013593505050565b600080600080600060a08688031215614bf557600080fd5b8535614c00816147e7565b94506020860135935060408601359250606086013591506080860135614c2581614954565b809150509295509295909350565b60008060008060808587031215614c4957600080fd5b8435614c54816147e7565b93506020850135614c6481614954565b92506040850135614c7481614954565b91506060850135614a0681614954565b9283526020830191909152604082015260600190565b600080600080600060808688031215614cb257600080fd5b85356001600160401b03811115614cc857600080fd5b614cd4888289016148d2565b90965094505060208601359250604086013591506060860135614c2581614954565b9182526001600160a01b0316602082015260400190565b60008060408385031215614d2057600080fd5b505080516020909101519092909150565b634e487b7160e01b600052601160045260246000fd5b8181038181111561091e5761091e614d31565b604081526000614d6d6040830185614b72565b905060018060a01b03831660208301529392505050565b60208082526010908201526f58523a20696e76616c6964206461746160801b604082015260600190565b60208082526024908201527f58523a206f6e6c7920746f20696e637265617365206465627420697320616c6c6040820152631bddd95960e21b606082015260800190565b6001600160a01b03929092168252602082015260400190565b6020808252602b908201527f58523a206d75737420686176652064656c61792066726f6d206c61737420726560408201526a6465656d65642074696d6560a81b606082015260800190565b6040815282604082015282846060830137600060608483018101919091526001600160a01b03929092166020820152601f909201601f191690910101919050565b6020808252602c908201526000805160206152bf83398151915260408201526b19195b1959d85d1958d85b1b60a21b606082015260800190565b6020808252602c908201526000805160206152bf83398151915260408201526b6163746976652070726f787960a01b606082015260800190565b60208082526021908201527f58523a20776974686472617720616d6f756e742073686f756c64206265203e206040820152600360fc1b606082015260800190565b6001600160a01b0392831681529116602082015260400190565b60088110614f8457634e487b7160e01b600052602160045260246000fd5b9052565b6001600160a01b038481168252831660208201526060810161478b6040830184614f66565b600060208284031215614fbf57600080fd5b5051919050565b8082018082111561091e5761091e614d31565b6001600160a01b03861681526020810185905260a08101614ffd6040830186614f66565b92151560608201529015156080909101529392505050565b60006020828403121561502757600080fd5b81516140c7816147e7565b60008060008060008060c0878903121561504b57600080fd5b8651615056816147e7565b80965050602087015194506040870151935060608701519250608087015161507d816147e7565b60a08801519092506148c4816147e7565b600080600080600080600080610100898b0312156150ab57600080fd5b88516150b6816147e7565b809850506020890151965060408901519550606089015194506080890151935060a08901516150e4816147e7565b60c08a01519093506150f5816147e7565b60e08a015190925061510681614954565b809150509295985092959890939650565b600080600080600080600080610100898b03121561513457600080fd5b885161513f816147e7565b60208a015160408b01519199509750615157816147e7565b60608a0151909650615168816147e7565b60808a0151909550615179816147e7565b60a08a015160c08b015160e0909b0151999c989b5096999598909790945092505050565b6020808252602b908201527f496e697469616c697a61626c653a20636f6e7472616374206973206e6f74206960408201526a6e697469616c697a696e6760a81b606082015260800190565b600082516151fa818460208701614b4e565b9190910192915050565b60006020828403121561521657600080fd5b81516140c781614954565b60008060008060008060008060006101208a8c03121561524057600080fd5b895161524b816147e7565b8099505060208a0151975060408a0151965060608a0151955060808a0151945060a08a0151615279816147e7565b60c08b015190945061528a816147e7565b60e08b015190935061529b816147e7565b6101008b01519092506152ad81614954565b80915050929598509295985092959856fe46756e6374696f6e206d7573742062652063616c6c6564207468726f75676820360894a13ba1a3210667c828492db98dca3e2076cc3735a920a3ca505d382bbc416464726573733a206c6f772d6c6576656c2064656c65676174652063616c6c206661696c6564a2646970667358221220fbfdd129992c371ff9d8393808f06449a6b5624bd5c21174c70ca9bc6019509f64736f6c63430008110033",
    "linkReferences": {},
    "deployedLinkReferences": {}
}